:020000040800F2
:1000000078060020CD0100082308000865060008D6
:10001000810700087F020008010C000800000000B2
:10002000000000000000000000000000410900087E
:100030000904000800000000890800081D0A0008E3
:10004000E7010008E7010008E7010008E7010008F0
:10005000E7010008E7010008E7010008E7010008E0
:10006000E7010008E7010008E7010008E7010008D0
:10007000E7010008E7010008E7010008E7010008C0
:10008000E7010008E7010008E7010008E7010008B0
:10009000E7010008E7010008E7010008E7010008A0
:1000A000E7010008E7010008E7010008E701000890
:1000B000610A0008E7010008E7010008E7010008FD
:1000C000E7010008E7010008E7010008E701000870
:1000D000E7010008E7010008E7010008E701000860
:1000E000AF040008E7010008E7010008E701000885
:1000F000E7010008E7010008E7010008E701000840
:10010000E7010008E7010008E7010008E70100082F
:10011000E7010008E7010008E7010008E70100081F
:10012000E7010008E7010008E7010008E70100080F
:1001300000F002F800F03AF80AA090E8000C8244BF
:100140008344AAF10107DA4501D100F02FF8AFF29C
:10015000090EBAE80F0013F0010F18BFFB1A43F0A5
:1001600001031847940B0000B40B0000103A24BFA1
:1001700078C878C1FAD8520724BF30C830C144BF0C
:1001800004680C607047000000230024002500264E
:10019000103A28BF78C1FBD8520728BF30C148BFEA
:1001A0000B6070471FB51FBD10B510BD00F031F8D2
:1001B0001146FFF7F7FF00F079FD00F04FF803B4A8
:1001C000FFF7F2FF03BC00F053F800000948804736
:1001D00009480047FEE7FEE7FEE7FEE7FEE7FEE729
:1001E000FEE7FEE7FEE7FEE704480549054A064B41
:1001F00070470000210A0008310100087800002043
:1002000078060020780200207802002070477047AE
:100210007047754600F028F8AE460500694653461B
:1002200020F00700854618B020B5FFF7DDFFBDE8D8
:1002300020404FF000064FF000074FF000084FF04D
:10024000000B21F00701AC46ACE8C009ACE8C009DE
:10025000ACE8C009ACE8C0098D4670470446AFF36E
:1002600000802046FFF7ABFF0048704714000020D5
:1002700001491820ABBEFEE7260002007047FEE7EA
:1002800005496FF027000870044908700449087098
:100290000449087070470000040000200500002099
:1002A00006000020070000200449282008700449A7
:1002B0000870044908700449087070470400002061
:1002C00005000020060000200700002006496FF00E
:1002D0001300064A08702821117005490870054965
:1002E0003220087070470000040000200500002044
:1002F00006000020070000202DE9F041284D1021C4
:10030000284600F071F90421284600F06DF92548CF
:10031000E914264C90F900202348002A1BDD2368AD
:10032000934202D200F060F901E000F05BF9012194
:10033000284600F057F91E481E4F4FF4007690F9FA
:100340000000002813DD216881421FD24021284689
:1003500000F04AF91EE0E8DA236852429342E4D200
:1003600000F040F90121284600F03EF9E3E70DDAFC
:1003700021684042814209D24021284600F032F9EA
:1003800031463846BDE8F04100F02EB940212846FC
:1003900000F028F931463846BDE8F04100F022B9B6
:1003A0000014014005000020001001400000002062
:1003B000060000200020014006492820074A087056
:1003C00005496FF01300087032211170044908705C
:1003D00070470000040000200500002006000020F7
:1003E00007000020044900200870044908700449EF
:1003F00008700449087070470400002005000020C0
:100400000600002007000020704710B5044609E0F0
:10041000012000F041F800F0E9F818B1BDE8104003
:10042000FFF7E0BF641EF3D210BD10B5044602E032
:100430008C2000F005F8641EE4B2F9D210BD000073
:1004400031B50C4D0098012184B2284600F068FBBC
:100450002146284600F084FB03E0284600F06AFBB2
:100460000446012CF9D82846BDE83840002100F0A8
:1004700057BB00000004004000EBC0014FF0E0203B
:100480004161016941F0010101610169C903FCD5C4
:10049000002101618161704700B502464FF47A7313
:1004A00002E01846FFF7E8FF521EFAD200BD10B571
:1004B0004FF48064204600F011F8002806D0204652
:1004C00000F006F8BDE8104000F0CEB810BD000006
:1004D000014908607047000014040140064A0146C3
:1004E00000201268044B0A4014331B680B4202D0F0
:1004F000002A00D0012070470004014010B50121FE
:10050000042000F0CFF90121082000F0CBF90121EF
:10051000102000F0C7F90121202000F0C3F90121CB
:10052000402000F0BFF90121802000F0BBF901213B
:10053000BDE81040080200F0B5B9F0B5CC78002253
:1005400004F00F03E40601D58C7823430C784FF0B8
:100550000F0C14F0FF0F4FF0010E1BD005680E8832
:100560000EFA02F42640A64210D196000CFA06F7C5
:1005700025EA070703FA06F5CE783D43282E02D078
:10058000482E02D002E0446100E00461521C082AB7
:10059000E5D305600A88FF2A1CD94468002202F1CD
:1005A00008060EFA06F50E882E40AE420ED19600D1
:1005B0000CFA06F7BC4303FA06F7CE783C43282E24
:1005C00000D14561CE78482E00D10561521C082A21
:1005D000E5D34460F0BD0246002092680A4200D094
:1005E0000120704741617047016170472DE9F0417A
:1005F0001A4F0026354604213846FFF7ECFF88B92C
:10060000022408E004213846FFF7E5FF012807D05F
:100610000120FFF741FF641E64B2002CF2D100E01C
:1006200004B901260E4F80213846FFF7D4FF88B960
:10063000022408E080213846FFF7CDFF012807D0CB
:100640000120FFF729FF641E64B2002CF2D100E004
:1006500004B902257019BDE8F081000000200140B6
:1006600000100140FEE700002DE9F04700240F20B4
:10067000FFF7DBFE3A4E4FF4806739463046FFF70E
:10068000AAFF012865D037492820087002E0012020
:10069000FFF7CBFE39463046FFF79DFF0028F6D026
:1006A000DFF8C4900025B046002602E00120FFF7E5
:1006B000BCFE39464046FFF78EFF0028F6D102E027
:1006C0000120FFF7B2FE39464046FFF784FF0028BD
:1006D000F6D006E00120FFF7A8FE641CE4B21E2C51
:1006E00037D239464046FFF776FF0028F2D119F895
:1006F00005004946400809F80500082C03D340F0DE
:10070000800009F80500761C0024F6B2082ED0D32C
:100710006D1CEDB2042DC7D3C97899F80200C94306
:10072000C9B2884215D11149432816D005DC1528D5
:1007300009D040280DD1492006E044280BD0462896
:1007400007D1412000E04220087007490120491EDE
:100750000870BDE8F0874320F6E74420F4E7000086
:10076000001401400C0000200E0000200B000020AF
:100770000249CA684240CA60704700000020014038
:10078000FEE70000F8B54FF40050ADF8000002207D
:100790008DF802001C4E10248DF803406946304647
:1007A000FFF7CBFEE501ADF8005069463046FFF794
:1007B000C4FEADF8005069461448FFF7BEFE0120A4
:1007C000134DADF8000069462846FFF7B6FE4020FD
:1007D000ADF8000069462846FFF7AFFE6001ADF8AE
:1007E000000069463046FFF7A8FEADF800406946B4
:1007F0002846FFF7A2FE0420ADF80000694628460F
:10080000FFF79BFEF8BD00000020014000100140F2
:100810000014014010B5FFF7B5FFBDE81040FFF729
:10082000E1BD704730B50F23C27801780125F2B1E0
:10083000144A126801F1E02102F4E062C2F5E062BC
:10084000120AC2F10404D3404278A24084781C40CA
:100850001443220181F80024007800F01F018D402C
:100860004009800000F1E020C0F8005130BD01F0E7
:100870001F0085404809800000F1E020C0F8805149
:1008800030BD00000CED00E070470000044A002974
:10089000D16901D0014300E08143D161704700007C
:1008A00000100240044A0029916901D0014300E090
:1008B000814391617047000000100240F8B54FF489
:1008C0008070ADF8000048251B4E8DF803500324BE
:1008D0008DF8024069463046FFF72FFE4020ADF804
:1008E00000008DF803508DF8024069463046FFF74E
:1008F00024FE1020ADF800008DF803508DF8024062
:1009000069463046FFF719FE8020ADF800008DF8EB
:1009100003508DF8024069460848FFF70EFE042098
:10092000ADF800008DF803508DF80240694630465E
:10093000FFF703FEF8BD0000002001400010014059
:100940007047000038B54FF48054ADF800401020D7
:100950008DF803000320064D8DF8020069462846F5
:10096000FFF7EBFD21462846FFF73EFE38BD0000AD
:10097000001401400CB50022264800920192016843
:1009800041F4803101604FF4A063016801F400314B
:1009900001910099491C0091019911B9009999425E
:1009A000F3D10168890333D5012101911A490A68FD
:1009B00042F010020A600A6822F003020A600A6824
:1009C00042F002020A60416841604168416041684A
:1009D00041F480614160416821F47C1141604168CB
:1009E00041F4E8114160016841F0807101600168E3
:1009F0008901FCD5416821F003014160416841F063
:100A0000020141604168C1F381010229FAD10CBDA4
:100A100001920CBD0010024000200240704700000F
:100A20000C48016841F00101016041680A4A114027
:100A300041600168094A11400160016821F4802188
:100A40000160416821F4FE0141604FF41F018160A3
:100A5000FFF790BF001002400000FFF8FFFFF6FE16
:100A600010B501218C07204600F066F800281BD045
:100A70000121204600F051F80C490878401CC0B212
:100A800008700A2810D300240C700949094A086824
:100A9000401C086013785B1C1370322800D30C6074
:100AA000BDE81040FFF728BC10BD00000A00002080
:100AB00000000020080000207FB501210846FFF754
:100AC000E5FE6320ADF804004720ADF800000024E7
:100AD0004FF08045ADF80640ADF802406946284623
:100AE00000F040F80121284600F017F801221146D5
:100AF000284600F02DF80121284600F011F81C20AE
:100B00008DF80C008DF80D4001208DF80E008DF849
:100B10000F0003A8FFF786FE7FBDC943018270471F
:100B20000029018802D041F0010101E021F001011A
:100B300001807047808C704702460020138A92899A
:100B40000B4202EA010202D0002A00D001207047C5
:100B5000002A828901D00A4300E08A4382817047DB
:100B60008184704730B502881B4C1C4DA0420DD0CB
:100B7000A8420BD0B0F1804F08D0194B984205D055
:100B8000184B984202D0184B984203D122F07003C0
:100B90004A881A43154B984206D0154B984203D009
:100BA00022F44073CA881A4302808A8882850A88A0
:100BB0000285A0420AD0A84208D00E4A904205D031
:100BC0000D4A904202D00D4A904201D1097A018625
:100BD0000121818230BD0000002C01400034014021
:100BE0000004004000080040000C004000100040DD
:100BF0000014004000400140004401400048014012
:100C0000FEE7000038B54FF40044ADF80040102076
:100C10008DF803000320064D8DF802006946284632
:100C2000FFF78BFC21462846FFF7DEFC38BD0000AD
:100C30000020014010B5FFF7D9FC174928B3442222
:100C40004FF4FA74012811D0022814D0032822D1BD
:100C50000A70FFF715FB4FF42F70FFF71DFCFFF72D
:100C6000ABFB2046BDE81040FFF7CFBB0A70FFF793
:100C700007FB2046F1E743200870FFF701FB204601
:100C8000FFF70AFCFFF722FBEBE741200870BDE805
:100C90001040FFF709BB10BD0B0000204FF0E02013
:100CA000016921F00401016170470000FFF7F6FFC0
:100CB000FFF724FCFFF7A6FFFFF7FEFEFFF7AAFDF4
:100CC000FFF7FCFDFFF73EFE0A4C00254FF40046FF
:100CD00020780528FCD325706078401CC1B2617073
:100CE000282903D365703046FFF742FDFFF7A2FFC6
:100CF000EEE7000008000020180D000800000020AA
:100D0000140000006C0100082C0D000814000020E5
:100D10006406000088010008000000002828282838
:0C0D20000000004900000000000000007E
:0400000508000131BD
:00000001FF
